:020000040800F2
:1000000050060020AD010008F32300080923000872
:10001000F1230008FD0D0008712800080000000011
:10002000000000000000000000000000172500088C
:10003000FF0D000800000000152500081925000824
:10004000C7010008C7010008C7010008C701000870
:10005000C7010008C7010008C7010008C701000860
:10006000C7010008C7010008C7010008C701000850
:10007000C7010008C7010008C7010008C701000840
:10008000C7010008C7010008C70100080000000000
:10009000000000000000000000000000C701000890
:1000A000C7010008C7010008C7010008C701000810
:1000B000C7010008C7010008C7010008C701000800
:1000C000C7010008C7010008C7010008C7010008F0
:1000D000C70100084D28000859280008000000004A
:1000E000C7010008C7010008C701000800000000A0
:1000F000000000000000000000000000C701000830
:1001000000000000C7010008C7010008C70100087F
:1001100000000000000000000000000000000000DF
:10012000C7010008C7010008C7010008C70100088F
:10013000C7010008000000000000000000000000EF
:10014000000000000000000000000000C7010008DF
:10015000C7010008C7010008C7010008652800089A
:10016000C7010008C70100080000000000000000EF
:10017000000000000000000000000000000000007F
:1001800000000000C701000800000000000000009F
:10019000C7010008C7010008DFF80CD000F0B2FB6F
:1001A000004800476D42000850060020064880477E
:1001B00006480047FEE7FEE7FEE7FEE7FEE7FEE74C
:1001C000FEE7FEE7FEE7FEE7992500089901000833
:1001D0002DE9F05F0546002092469B46884606467C
:1001E000814640241BE0284641464746224600F00F
:1001F00086FA53465A46C01A914110D31146184602
:10020000224600F06DFA2D1A67EB01084F46224690
:100210000120002100F064FA17EB00094E41201E76
:10022000A4F10104DFDC484631462A464346BDE8D6
:10023000F09FD2B201E000F8012B491EFBD27047BB
:100240000022F6E710B513460A4604461946FFF7A2
:10025000F0FF204610BD10B5002200E0521C835C68
:100260008C5CA34201D1002BF8D1D8B2E1B2401A84
:1002700010BD2DE9FE4F804681EA0300C00F0C46F9
:10028000009021F0004123F00045B8EB0200A941A5
:1002900005D24046214690461C460B46024623F0B6
:1002A0000040104347D0270DC7F30A00C3F30A519B
:1002B0000290401A019040286BDAC3F3130040F417
:1002C000801B0098924620B10023D2EB030A63EB17
:1002D0000B0B01985946C0F14002504600F000FA5D
:1002E00006460D4650465946019A00F018FA10EBA2
:1002F00008006141002487EA115284EAE7731A4337
:1003000040D0009A62B3019A012A4FEA075215DCE5
:10031000001B61EB02014FF0004202EA0752CDE9F7
:100320000042001C41F5801132462B4600F067FA6E
:1003300003B0BDE8F08F40462146F9E7001B61EBB2
:100340000201001C41F5801300185B412018A2F542
:10035000001747EB030140EAD570B6196D4111E073
:100360006D084FEA360645EAC0754FEA0752001B92
:1003700061EB0201001C41F5801149084FEA300091
:100380000019514132462B4603B0BDE8F04F00F052
:1003900027BA0098012240000023D0EB020263EB51
:1003A000E073009821464FEAE074B8EB000061EB7F
:1003B0000401E9E783F000435BE781F0004158E77F
:1003C0002DE9FE4F81EA030404F0004421F00041CE
:1003D00000944FF0000B23F0004350EA01045ED07C
:1003E00052EA03045BD0C3F30A54C1F30A552C4408
:1003F000A4F2F3340194A0FB0254C1F3130141F4BD
:100400008011C3F3130343F4801301FB024400FB88
:10041000034E840A970A44EA815447EA8357A4FBAF
:10042000076802958D0A05FB07854FEA932C04FBAC
:100430000C542705029D4FEA065847EA1637B5EBDC
:1004400008056EEB070C870E920E47EA811742EA09
:100450008312A7FB0201B6EB0B0164EB00042B0D2A
:1004600043EA0C335E1844EB1C50DA465146E7FB76
:100470000201C5F313044FEA0B3343EA14534FEA66
:100480000432019C43EA0603A4F10C040294009C8C
:10049000CDE900B400F0B3F903B0BDE8F08F00205F
:1004A0000146F9E72DE9F04D81EA030404F0004B21
:1004B00021F0004514464FF0000A23F0004150EAB5
:1004C000050220D054EA01021DD0C5F30A570246A6
:1004D000C5F31303C1F31300C1F30A5640F48015AA
:1004E00043F48013A7EB0608101BD64608F2FD382C
:1004F00073EB050002D308F1010801E092185B419B
:10050000B8F1000F03DA00200146BDE8F08D0020AD
:100510004FF48011064684460EE0171B73EB050767
:1005200005D3121B63EB050306434CEA010C490893
:100530004FEA300092185B4150EA0107EDD152EAD0
:10054000030012D082EA040083EA0501084305D0C3
:10055000101BAB4106D20122002306E000224FF01F
:10056000004302E06FF0010253101AEB06004CEB5F
:10057000085110EB0A0041EB0B01BDE8F04D00F013
:100580002FB90EB5C10F80EAE0700844CA070021F8
:1005900040F233438DE80E000A460B4600F02FF977
:1005A00003B000BD0EB540F2334102910021CDE908
:1005B00000110A460B4600F022F903B000BD70B5E9
:1005C000C1F30A5201F000450024C1F3130140F2C7
:1005D000FF3341F480119A4201DA002070BD40F2ED
:1005E00033439A42A2F2334203DC524200F087F8CE
:1005F00000E090402C43F1D0404270BDC1F30A525C
:1006000010B5C1F3130140F2FF3341F480119A4257
:1006100001DA002010BD40F233439A42A2F2334285
:1006200003DC524200F06BF810BD904010BD00F0AA
:10063000004230F000400AD0C10D01F56071C0F3F6
:10064000160042EA0151C2084007114370470020DA
:100650000146704730B5041E71F1000404DB4FF011
:100660000044404264EB0101141E73F1000405DBF9
:100670001C464FF00043524263EB04038B4208BF19
:10068000824230BD30B5041E71F1000404DB4FF02E
:100690000044404264EB0101141E73F1000405DBC9
:1006A0001C464FF00043524263EB0403994208BFDB
:1006B000904230BD30B50B46014600202022012477
:1006C00009E021FA02F59D4205D303FA02F5491B20
:1006D00004FA02F52844151EA2F10102F1DC30BD36
:1006E000202A04DB203A00FA02F1002070479140F2
:1006F000C2F1200320FA03F3194390407047202AE7
:1007000004DB203A21FA02F00021704721FA02F3BB
:10071000D040C2F120029140084319467047202A78
:1007200006DBCB17203A41FA02F043EAE07306E019
:1007300041FA02F3D040C2F1200291400843194629
:10074000704700000FB4002300B589B00CA90091D8
:100750000B996FF00042CB601E4B06931E4B079324
:100760000423CDE901321D4A089202466B4600205F
:1007700000F060F909B05DF814FB70B586B006466C
:100780004FF0FF300091CDE90101002015460C46E5
:1007900004903246694604A8FFF7D4FF0346049844
:1007A000211825B108B10A4600E022462A60002837
:1007B0000DD0002B02DD0098884208D0081B009461
:1007C000CDE901043246694604A8FFF7BBFF06B035
:1007D00070BD00006D0C00088B0C00082909000892
:1007E00010B5141E73F1000408DA401C41F1000139
:1007F00092185B411A4301D120F0010010BD2DE990
:10080000F04D92469B4611B1B1FA81F202E0B0FA86
:1008100080F220329046FFF763FF04460F4640EA1D
:100820000A0041EA0B0153465A46084313D01146C9
:1008300053EA010019D0C8F140025046FFF75FFFAC
:1008400005460E46504659464246FFF749FF0843C3
:1008500005D0012004E020463946BDE8F08D002097
:10086000054346EAE0762C4337430A986305E40AD9
:10087000A0EB08000022FD0A44EA47540A3002D5E2
:1008800000200146E9E7010510196941DDE9084545
:1008900000196941BDE8F04DA2E7C1F30A52C1F366
:1008A000130140F2FF3341F480119A4202DA002032
:1008B0000146704740F233439A42A2F2334202DCCF
:1008C0005242FFF71CBFFFF70BBF01F0004330B4EB
:1008D00021F0004150EA010206D00A0DA2F5607233
:1008E000C1F31301002A02DC30BC00207047440F22
:1008F00044EAC104C100E01830BC00EBC25000F073
:10090000D5B90000064C074D06E0E06840F0010351
:1009100094E8070098471034AC42F6D3FFF740FC48
:10092000F8490008184A0008C0B24FF4F05100F02E
:1009300045BA00002DE9FF4F087881B09946FF289D
:1009400005D0491C2D2804D00024002308E00023F2
:100950000BE00124F9E703EB830300EB4303491C9D
:100960000878FF28F7D104B15B420020009014788A
:1009700001462D2C01D02B2C04D1521C2D2C12D031
:100980000024009400251678FF2E0ED00A24A0FB28
:1009900004C801FB0481002700FB0711521C16EB61
:1009A0000C006941EFE70124EBE7994450EA0102AA
:1009B0000ED00024AA4D2646DFF8A88200F012FAD5
:1009C00082468B46B9F1000009DAC9F100071BE045
:1009D00001980021C0E9001105B0BDE8F08F07467D
:1009E00012E0F80707D022462B4630464146FFF773
:1009F000E7FC0646884622462B4610461946FFF776
:100A0000DFFC04460D467F10002FEAD1B9F1000F3C
:100A1000324643465046594602DAFFF743FD01E0AD
:100A2000FFF7CEFC009A0AB181F00041019AC2E9B9
:100A30000001D1E72DE9FF4F1F468DB0D7E90146F0
:100A40004FF0FF382E2045464FF000090B90B96952
:100A50006D1C0E988847396A824688470028F6D16F
:100A6000BAF1FF3F0AD024F4D064002E11DDBAF1B0
:100A70002B0F08D0BAF12D0F0BD102E0404611B078
:100A8000ABE744F48064B9696D1C0E9888478246D0
:100A9000761E6946600501D52D2000E02B208DF8DB
:100AA000000001F1010B0DF1200809E0B9696D1C8E
:100AB0000E98884782460F9844F40074761E0560AD
:100AC000002E02DDBAF1300FF0D00B998A453ED1ED
:100AD00044F0800406E00F99681CA9F1010944F470
:100AE00000740860B9696D1C761E0E9888478246AE
:100AF0003028F0D02BE00B998A4505D1200603D48D
:100B000044F08004761E18E0504602F065FE08B3FB
:100B10000DF11301761E44F400748B4508D2AAF13E
:100B200030000BF8010B200607D5A9F1010003E006
:100B3000200602D409F101008146A00502D50F99D3
:100B4000681C0860B9696D1C0E9888478246002EA3
:100B5000D1DC53E0002E51DDBAF1650F02D0BAF1BD
:100B6000450F4BD1A00549D5B9696D1C24F44074DB
:100B7000761E0E9888478246002E0CDD2B2804D066
:100B8000BAF12D0F07D144F48074B9696D1C0E9829
:100B900088478246761EE00501D52D2100E02B21F5
:100BA00008F8011BCDF82C8021E00DF12901761EFB
:100BB00044F4007488450CD2AAF1300010F0FF0014
:100BC00088F8000002D10B99884509D908F101087D
:100BD00006E0E00501D5244801E042F20F708146AD
:100BE000B9696D1C0E98884782460F980560002EE3
:100BF00004DD504602F0F0FD0028D6D1F9690E98C8
:100C00008847FF208BF8000088F80000002006903D
:100C100007904B466A4608A906A8FFF78BFEA00579
:100C200002D46FF001002AE714F0240F0AD0E00785
:100C300014D1DDE906123868031D3B600068C0E985
:100C400000120BE0DDE90601FFF73FFE0146E00779
:100C500004D13868021D3A600068016028460EE73A
:100C6000000024400000F03FF1D8FFFF426842B18D
:100C7000016811F8013B23B1521EC0E90012184669
:100C800070470121C160881E704742685AB1C3682D
:100C9000016843B983688B4205D0491E521CC0E9E4
:100CA0000012002070474FF0FF3070470029A8BFA6
:100CB0007047401C490008BF20F00100704710B485
:100CC000B0FA80FC00FA0CF050EA010404BF10BC3A
:100CD000704749B1CCF1200421FA04F411FA0CF167
:100CE00018BF012121430843A3EB0C01CB1D4FEAA0
:100CF00000614FEA102042BF002010BC704700EB9B
:100D0000C35010440029A4BF10BC7047401C4900C8
:100D100008BF20F0010010BC70472DE9F04D002302
:100D20001A461B1A8A4103DB00200146BDE8F08DFC
:100D3000C1F30A52C1F3130141F480154FF0000BC7
:100D4000D10702D100186D41521E0027044640F21F
:100D5000FF11384601EB620A3E46804602460020FB
:100D60004FF48011FFF7CBFCC2197141BB1846EB61
:100D70000100B4EB030C75EB000C04D3E41A65EB33
:100D8000000517460E46241908F101006D41804602
:100D90003428E3DDF91946EB0600091BA84103D20C
:100DA0004FF0FF32134601E0002213461BEB070011
:100DB00046EB0A51BDE8F04DFFF712BD7F2801D97F
:100DC000002208E0064A02EB5002C007127800D168
:100DD000120902F00F020120904008407047000005
:100DE000284600080EB540F2334202920022CDE9B7
:100DF00000221346FFF703FD03B000BDFEE7704776
:100E000072B6FEE72DE9F04F4FF0000A2DED108B82
:100E100083B05046FD49FE4C04F13805C1F808A0E6
:100E2000225C2A54401C0A28FADB8860F8488B466A
:100E30006946383001F0D8FF10EE100AFFF7F7FBD3
:100E4000DFF8CC9309F170099FEDF2AB53EC1A2B4C
:100E5000FFF7B6FAFFF7B3FBF04A014690FBF2F654
:100E600042F2107091FBF0F0642290FBF2F302FB6F
:100E7000130791FBF2F090FBF2F302FB130891FBD6
:100E8000F2F002FB10104FF47A7190FBF1F0FFF7D3
:100E900078FB41EC1C0B4046FFF773FB41EC1B0B4E
:100EA0003846FFF76EFB9FEDDE9B53EC192BFFF7E7
:100EB00087FA41EC180B3046FFF763FB9FEDDA1B16
:100EC00053EC112BFFF77CFA53EC182BFFF7D1F9F9
:100ED00053EC1B2BFFF7CDF953EC1C2BFFF7C9F993
:100EE000A9F1A802C9E90001C2E900015046CBF806
:100EF00008A021182A18C97A401CD1720A28F8DBE8
:100F0000CBF80800C2486946433001F06DFF10EE8F
:100F1000100AFFF78CFB9FEDC68B53EC182BFFF7E5
:100F20004FFAFFF74CFBBA4E8046E0363060FFF7D1
:100F300028FB07469FEDC0BB019153EC1B2BFFF72D
:100F4000B1FAFFF73CFB70600199814641EC107BE0
:100F500053EC182B51EC100BFFF7A4FAFFF72FFB03
:100F6000642190FBF1F201FB1207B54998FBF1F205
:100F700001FB1280C6E90270FFF703FB53EC182B4C
:100F8000FFF790FA41EC1C0B3846FFF7FAFA53ECE6
:100F90001C2BFFF76EF953EC192BFFF783FA41EC8A
:100FA0001C0B484686ED04CBFFF7EBFA53EC1C2BE9
:100FB000FFF75FF9A6F17002C6E90601C2E9040174
:100FC000A83AC2E902015046CBF808A021182A1815
:100FD000097E401C11760B28F8DB8C4988608C4810
:100FE0006946503001F000FF10EE100AFFF71FFBBA
:100FF000DFF81CB253EC182B0BF1700BFFF7E0F984
:10100000FFF7FCFA0BF1500680463060FFF7CAFA92
:10101000074653EC1B2B0191FFF744FAFFF7EEFA5A
:1010200070600199814641EC107B53EC182B51EC18
:10103000100BFFF737FAFFF7E1FA6421B0FBF1F28A
:1010400001FB12077E49B8FBF1F201FB1280C6E9F1
:101050000270FFF7A7FA53EC182BFFF723FA41ECC5
:10106000180B3846FFF79EFA53EC182BFFF701F9DF
:1010700053EC192BFFF716FA41EC180B484686ED96
:10108000048BFFF78FFA53EC182BFFF7F2F8C6E941
:101090000601F83ECBE90801C6E904015B49504668
:1010A000C1F808A021182A1891F82E10401C82F8C7
:1010B0002E100528F6DB554988605548694666308C
:1010C00001F092FE10EE100AFFF7B1FA9FED5DEB12
:1010D000CBE9100196ED020B9FED5C8B51EC100BF0
:1010E00053EC182BFFF76CF996ED080B41EC1C0B39
:1010F00053EC182B51EC100BFFF762F996ED040B33
:1011000041EC1B0B53EC182B51EC100BFFF758F96B
:1011100096ED0A0B41EC190B53EC182B51EC100B0C
:10112000FFF74EF941EC1F0BB0EE4C0AF0EE6C0AE3
:1011300001F0F6FDB0EE40DAF0EE60DAB0EE4B0A08
:10114000F0EE6B0A01F0ECFDB0EE408AF0EE608A42
:10115000B0EE4C0AF0EE6C0A01F072FDB0EE40CA3F
:10116000F0EE60CAB0EE4B0AF0EE6B0A01F068FDDB
:10117000B0EE40BAF0EE60BA53EC1F2B51EC190BF5
:10118000FFF718F941EC100B01F05AFDB0EE409A50
:10119000F0EE609A53EC182B51EC1D0BFFF710F991
:1011A00041EC180B53EC1B2B51EC1C0BFFF708F90F
:1011B00053EC192BFFF704F941EC100B51EC180B11
:1011C00053EC102BFFF755F841EC100B01F08CFBA2
:1011D00053EC1E2B51EC100BFFF7F2F896ED060BBB
:1011E00096ED001B41EC180B53EC102B51EC110B3E
:1011F000FFF7E0F841EC100B01F086FD53EC102BEB
:1012000051EC180BFFF74EF924E00000000000201D
:1012100080000020000000000000594040420F0004
:101220000000000000004E40000000000020AC4024
:1012300000000000006AF84000000000D012634186
:10124000A086010000000040A6545841916B50A2B6
:1012500046DF913F96ED080B9FED121B41EC180BFA
:1012600053EC112B51EC100BFFF7F4F908D053ECB1
:101270001A2B51EC180BFFF7EDF901D286ED0C8B10
:1012800096ED020B86ED080B96ED040B86ED0A0B2E
:1012900096ED000B86ED060B03B0BDEC108BBDE8A0
:1012A000F08F00000000000000000000F0B5604D6D
:1012B00093B00024AC606E46EC605D490A230122C5
:1012C000C91C5C4800F064FFA868E97831546A786A
:1012D000914203D0401CA8604628EEDBAC60297820
:1012E000554AE86823460F4616F800C0BC4505D1AC
:1012F000401CC5E9024023460F4604E002F803C043
:10130000401C5B1CF0E716F800C0BC4505D1401C32
:10131000C5E9024023460F4606E002EB030E401CDF
:101320008EF80BC05B1CEEE716F800C0BC4505D17B
:10133000401CC5E9024023460F4606E002EB030EBF
:10134000401C8EF816C05B1CEEE716F800C0BC45CA
:1013500005D1401CC5E9024023460F4606E002EBDA
:10136000030E401C8EF818C05B1CEEE716F800C098
:10137000BC4505D1401CC5E9024023460F4606E0A6
:1013800002EB030E401C8EF824C05B1CEEE716F83F
:1013900000C0BC4505D1401CC5E9024023460F46AC
:1013A00006E002EB030E401C8EF826C05B1CEEE745
:1013B00016F800C0BC4505D1401CC5E902402346D3
:1013C0000F4606E002EB030E401C8EF828C05B1CA3
:1013D000EEE716F800C0BC4505D1401CC5E9024047
:1013E00023460F4606E002EB030E401C8EF82BC08E
:1013F0005B1CEEE716F800C0BC4503D1401CC5E9F4
:10140000024006E002EB030E401C8EF82EC05B1C6F
:10141000F0E7335C8B4204D1401CC5E9024013B0B5
:10142000F0BD1719401C87F83430641CF1E7000048
:101430000000002008020020800000202DE9F0417B
:101440000446876D00F058F9064694F835000025EB
:10145000022806D08020606584F834500120BDE861
:10146000F0812068016821F016010160206841695F
:1014700021F080014161206C08B9A06C20B1206886
:10148000016821F0080101602068016821F0010174
:1014900001600CE000F030F9801B052807D92020FE
:1014A0006065032084F8350084F83450D7E720685D
:1014B0000068C007EED194F85C103F208840B86007
:1014C000012084F8350084F834500020C7E790F8F4
:1014D0003510022903D08021416501207047052184
:1014E00080F835100068016821F0010101600020DA
:1014F0007047000070B5044600F0FEF80546601C19
:1015000002D004480078044400F0F6F8401BA042E2
:10151000FAD370BD300000202DE9F84FDFF8B8A1F4
:10152000002201240AF1040B03254FF00F090BF1EF
:10153000040E00BF0B6804FA02F63340B34273D1C5
:101540000F7907F00307012F01D0022F16D187680A
:101550004FEA420805FA08FC27EA0C07D1F80CC04C
:101560000CFA08FC4CEA070CC0F808C04768B743FF
:101570000E79C6F3001696403E4346600E79F64358
:10158000B6070DD0C768560005FA06FC27EA0C0717
:10159000D1F808C00CFA06FC4CEA070CC0F80CC0E5
:1015A0000E7906F00306022E10D1D60800EB86084D
:1015B000D8F8206057074FEAD76C09FA0CF7BE43FA
:1015C0000F6907FA0CF73743C8F8207006684FEA2E
:1015D000420C05FA0CF7BE430F7907F0030707FA30
:1015E0000CF7374307604E6816F4403F6DD03B4E12
:1015F000376847F480473760366822F0030706F4FF
:1016000080460096364E07EB060CDCF80868970714
:101610003F0F09FA07F826EA0806DFF8C8804045B8
:1016200003D14FF000081EE04FE0DFF8BC804045DA
:1016300002D14FF0010816E0DFF8B080404502D13A
:101640004FF002080FE0DFF8A880404502D14FF0CC
:10165000030808E0DFF89C80404502D14FF0040801
:1016600001E04FF0070808FA07F848EA0608CCF846
:101670000888DAF800605746D1F804C09E435FEA54
:10168000CC3C00D51E433E60DBF800605F46D1F8DD
:1016900004C09E435FEA8C3C00D51E433E60DEF8EA
:1016A00000607746D1F804C09E435FEACC2C00D599
:1016B0001E433E60084F0C373E68D1F804C09E437D
:1016C0005FEA8C2C00D51E433E60521C102AFFF4AA
:1016D00031AFBDE8F88F0000003C014044380240C3
:1016E00000300140000002400004024000080240B7
:1016F000000C024000100240014880687047000062
:1017000030000020024881680278114481607047EF
:10171000300000200B4810B5016841F400710160F1
:10172000016841F480610160016841F480710160E9
:10173000032000F06FF80F2000F006F800F024F806
:10174000002010BD003C024070B50D4D04464FF422
:101750007A712878B1FBF0F00A490968B1FBF0F022
:1017600000F00CFB48B9102C07D200222146501E75
:1017700000F030F800206C6070BD012070BD0000EA
:10178000300000203C0000200A4808B5016841F400
:1017900080410160006800F4804000900548001F0F
:1017A000016841F080510160006800F080500090B5
:1017B00008BD000044380240002809DB00F01F0289
:1017C000012191404009800000F1E020C0F80011A3
:1017D00070470000F0B40E4B1B680C46C3F30223A5
:1017E000C3F10705042D00D90425191D072901D2CD
:1017F000002300E0DB1E012606FA05F1491E214008
:1018000099409E40761E16403143F0BC01F05AB814
:101810000CED00E0064900F0070208684FF6FF03F0
:10182000184040EA0220034A104308607047000055
:101830000CED00E00000FA052DE9F0470E4605002A
:1018400065D0DFF81481D8F80000F7B200F0070087
:10185000B04207D288F80070D8F8000000F0070006
:10186000B04254D128683D4C810712D5400703D5BA
:10187000206840F4E05020602878000703D52068F5
:1018800040F4604020602068A96820F0F000084320
:1018900020602878C0072DD03049686808390128B1
:1018A00012D0022813D0032811D009688907002913
:1018B0002DDA216821F0030101432160FFF71CFFAD
:1018C000814641F2883A0EE009688903EFE709682A
:1018D0008901ECE7FFF710FFA0EB0901514502D9A0
:1018E0000320BDE8F0872068696800F00C00B0EBC9
:1018F000810FEFD1D8F80010404601F00701B14246
:1019000007D90770006800F00700B04201D001203D
:10191000E7E72878400705D52068E96820F4E0501B
:10192000084320602878000706D52068296920F43C
:10193000604040EAC100206000F038F82168084AA1
:10194000C1F30311515CC8400649086006480068AD
:10195000FFF7FAFE0020C4E7003C024008380240CE
:101960009A4400083C000020340000200448054947
:1019700000680968044AC1F38221515CC84070477D
:101980003C00002008380240AA44000804480549E9
:1019900000680968044AC1F34231515CC84070478D
:1019A0003C00002008380240AA440008154810B541
:1019B000006810F00C02144813D01449042A0FD008
:1019C000082A0ED10F4C241F2268236802F03F0220
:1019D0005B0207D52068C0F38810A0FB010106E078
:1019E000084610BD2168C1F38811A1FB0001002346
:1019F000FEF7EEFB2168C1F30141491C4900B0FB31
:101A0000F1F010BD083802400024F40040787D0158
:101A10002DE9F84F04006ED02078DFF84C93C00712
:101A2000A9F104054AD009F104000168C1F381015C
:101A3000012908D00068C0F3810002280AD1D9F832
:101A40000000400206D52868800337D5606800286A
:101A5000E1D033E06068B0F5803F10D0B0F5A02F42
:101A6000286810D020F480302860286820F4802076
:101A700028606068A8B1FFF73FFE06460DE02868C1
:101A800040F48030F4E740F480202860F7E700BF9E
:101A9000FFF732FE801B642873D828688003F7D5CF
:101AA0000CE0FFF729FE064605E000BFFFF724FE25
:101AB000801B6428F0D828688003F7D42078DFF8EA
:101AC000AC8280074FF0000A3ED5A748001D016890
:101AD00011F00C0F08D00068C0F3810002280BD170
:101AE000D9F80000400207D42868800716D5E068BE
:101AF000012800D112E033E1E068B8B10120C8F854
:101B00000000FFF7F9FD064605E000BFFFF7F4FD12
:101B1000801B0228C0D828688007F7D5286821696B
:101B200020F0F80040EAC10028600DE0C8F800A0ED
:101B3000FFF7E2FD064604E0FFF7DEFD801B02280A
:101B40001FD828688007F7D42078000722D5864F51
:101B500087486169703771B101210160FFF7CCFDE1
:101B6000064604E0FFF7C8FD801B022809D8386844
:101B70008007F7D50EE0C0F800A0FFF7BDFD0646D0
:101B800005E082E0FFF7B8FD801B02287DD83868A9
:101B90008007F7D42078400768D5DFF8CCB100275C
:101BA0000BF13C0BDBF80000C0000BD4DBF800109D
:101BB00041F08051CBF80010DBF80000012700F065
:101BC000805000906B4E3068C00510D4306840F4EF
:101BD00080703060FFF790FD009005E0FFF78CFD0E
:101BE0000099401A022850D83068C005F6D55E4EDC
:101BF000A0686C3601280FD00528306810D020F07E
:101C000001003060306820F004003060A068B8B196
:101C1000FFF772FD00900FE0306840F00100F4E73C
:101C200040F004003060F7E7FFF766FD0099411AC5
:101C300041F28830814266D830688007F4D50EE0E2
:101C4000FFF75AFD009007E0FFF756FD0099411A93
:101C500041F28830814256D830688007F4D42FB1E1
:101C6000DBF8001021F08051CBF80010A069C8B358
:101C70003D49091D0968C1F3810102294AD00228A2
:101C8000504607D0C8F8600000E03CE0FFF734FDA4
:101C900004463BE04746C8F86000FFF72DFD0646C6
:101CA00005E000BFFFF728FD801B02282BD828681D
:101CB0008001F7D4D4E907010843A16A2E4A4908F4
:101CC00002EB0141626A41EA8211084394F82C1048
:101CD00040EA0161C9F8001001203866FFF70CFDE9
:101CE000044606E03EE000BFFFF706FD001B0228A9
:101CF00009D828688001F7D534E000BFFFF7FCFC65
:101D0000001B022802D90320BDE8F88F2868800153
:101D1000F4D427E00128F7D0D9F80000E26900F4F4
:101D2000800191421CD1226A00F03F01914217D1FB
:101D300047F6C071626A0140B1EB821F10D1A26AFE
:101D40004FF0FF3300F4403103EB5202B1EB024F8E
:101D500006D194F82C1000F07060B0EB016F01D048
:101D60000120D1E70020CFE70438024000004742BD
:101D7000800E4742007000400000FFFF10B5401E7B
:101D8000B0F1807F01D3012010BD4FF0E0246061ED
:101D90000F21601700F096FD0020A0610720206150
:101DA000002010BD70477047F8B501680446086808
:101DB000CA684B6910F00F0F4FF000055AD003F0BE
:101DC000010602F49077374365D0C10705D0D105ED
:101DD00003D5216C41F001012164410705D5D907E4
:101DE00003D0216C41F002012164810705D5D90798
:101DF00003D0216C41F004012164010707D502F0F2
:101E00002001314303D0216C41F008012164216C91
:101E100000293BD0800604D5900602D5204600F06C
:101E2000F2FB20684069216CC0F3801001F00801CA
:101E3000014320462BD000F0BFFB206840694006DC
:101E400021D52068143050E8001F21F0400140E8FF
:101E50000012002AF5D1A06BA8B16C490165A06BF6
:101E6000FFF735FB002811D0A06B016D01B0BDE874
:101E7000F040084783060ED593060CD52046BDE8F2
:101E8000F84000F0C0BB2046FFF78DFFF8BDFFF71C
:101E90008AFF2564F8BD266B2023012E79D1C60662
:101EA00077D5D60675D50868486800904869400619
:101EB00040D5A16B086840680004000CEAD0A28DF0
:101EC0008242E7D9E085C869B0F5807F2DD02068CF
:101ED0000C3050E8001F21F4807140E80012002A05
:101EE000F5D12068143050E8001F21F0010140E8CE
:101EF0000012002AF5D12068143050E8001F21F0AC
:101F0000400140E80012002AF5D184F83E302563F4
:101F100020680C3050E8001F21F0100140E800124A
:101F2000002AF5D1A06BFFF789FAA08DE18D401A48
:101F300081B229E0A08DE18D401A81B2E08D0028A8
:101F4000A8D00029A6D020680C3050E8002F22F439
:101F5000907240E80026002EF5D12068143050E839
:101F6000002F22F0010240E80026002EF5D184F86F
:101F70003E30256320680C3050E8002F22F010021C
:101F800040E80023002BF5D12046FFF70BFFF8BDFA
:101F9000FFE705062BD5150629D594F83D00212825
:101FA000F5D1A068B0F5805F01D12069B0B1206A99
:101FB000411C2162216800784860E08C401E0004CA
:101FC000000CE084E3D12068C16821F08001C16089
:101FD0002068C16841F04001C160D8E7206A0088EC
:101FE000C0F308004860206A801C2062E5E74006D4
:101FF000CDD55006CBD5CA68204622F04002CA6033
:1020000084F83D3000F07FF9C1E70000A925000801
:1020100070B5040004D094F83D00002510B106E02E
:10202000012070BD84F83C50204600F023F82420A5
:1020300084F83D002068C16821F40051C160204649
:1020400000F042FB2068016921F4904101612068A1
:10205000416921F02A0141612068C16841F40051C1
:10206000C1602564202084F83D0084F83E000020F3
:1020700070BD0000F0B587B0044614216846FEF735
:10208000DFF83E49DFF8F0C0276800223B4B1439E7
:102090000224032507263A4867451FD11F6847F0E9
:1020A00010071F601B6803F0100305930B6843F0D3
:1020B00001030B60096802AF01F00101059169029B
:1020C000CDE9001487E864006946FFF725FA00228D
:1020D00003212520FFF77EFB252024E0DFF8A4C0A4
:1020E000674524D1254B1B1F1F6847F400371F602D
:1020F0001B6803F4003305930B6843F001030B6086
:10210000096802AB01F0010105910C21CDE9001431
:1021100083E864006946FFF7FFF9002202212620C8
:10212000FFF758FB2620FFF747FB07B0F0BD164826
:102130008742FAD1186840F020001860186800F053
:1021400020000590086840F00400086008680292CA
:1021500000F004000590C020CDE900040820CDE97E
:10216000035069460948FFF7D7F9002201214720AB
:10217000FFF730FB4720D6E700100140443802400B
:1021800000000240004400400014014000080240EA
:102190002DE9F84F044690F83E009A4616460D4643
:1021A000202853D1FDB1F6B194F83C0001284DD060
:1021B000012084F83C0000272764222084F83E0098
:1021C0002763FFF799FAA6858146E685A0684FF454
:1021D0008058404501D1206940B12E465FF000058E
:1021E00084F83C7027E00120BDE8F88F0026F7E76F
:1021F0004B46002220212046CDF800A000F0EAFA4C
:1022000008B10320F0E726B1A06840451BD038B1E3
:1022100008E020684068C0F3080025F8020B07E0DA
:10222000206980B12068406800F07F0006F8010B4B
:10223000E08D401EE085E08D0028D9D1202084F873
:102240003E000020D0E720684068EFE70220CBE79F
:10225000704700002DE9F843044690F83D001F4602
:1022600016460D4620284CD1C5B1BEB194F83C00AD
:10227000012846D0012084F83C004FF00008C4F843
:102280004080212084F83D00FFF736FAA68481467D
:10229000E684A068B0F5805F03D004E00120BDE8CB
:1022A000F883206928B12E465FF0000584F83C8051
:1022B0000EE00026FAE78021204600F08BFAA0B954
:1022C000AEB116F8010B21684860E08C401EE08436
:1022D000E08C4B464FF0000200970028EBD14FF006
:1022E0004001204600F076FA30B10320D7E735F8F8
:1022F000020BC0F30800E6E7202084F83D00002030
:10230000CDE70220CBE77047FEE700000D4808B597
:10231000016841F004010160016801F004010091CD
:10232000016841F080010160016801F080010091C5
:10233000016841F001010160006800F001000090B7
:1023400008BD0000303802400C4810B50A49016051
:102350004FF4E1314160002181600C22C160C0E98D
:1023600004128161C161FFF753FE002803D0BDE86C
:102370001040FEF745BD10BD001001408001002057
:102380000C4810B50A4901604FF416514160002114
:1023900081600C22C160C0E904128161C161FFF754
:1023A00037FE002803D0BDE81040FEF729BD10BD60
:1023B00000440040C40100200C4810B50A490160E7
:1023C0004FF416514160002181600C22C160C0E9C8
:1023D00004128161C161FFF71BFE002803D0BDE834
:1023E0001040FEF70DBD10BD001401400802002092
:1023F000FEE7FEE710B522A000F03CFA6420FFF7EC
:1024000079F821A000F036FA6420FFF773F820A0D5
:1024100000F030FA6420FFF76DF820A000F02AFAEF
:102420006420FFF767F820A000F024FA6420FFF78B
:1024300061F820A000F01EFA6420FFF75BF820A0EE
:1024400000F018FA6420FFF755F820A000F012FA07
:102450006420FFF74FF821A000F00CFA6420FFF78A
:1024600049F823A000F006FA6420FFF743F823A000
:1024700000F000FABDE810406420FFF73BB8000010
:1024800041540D0A000000004154490D0A000000AB
:1024900041542B4350494E3F0D0A000041542B43F9
:1024A00053510D0A0000000041542B434752454749
:1024B0003F0D0A0041542B434F50533F0D0A00007B
:1024C00041542B435343413F0D0A000041542B43D9
:1024D000504D533D22534D220D0A000041542B43D1
:1024E0004E4D493D322C312C302C302C300D0A0011
:1024F00041542B434D47463D310D0A0041542B4377
:10250000534D503D31372C3136372C302C300D0A9D
:102510000000000070477047FFF7F4B810B592B0A4
:1025200030216846FDF78CFE14210CA8FDF788FECB
:1025300017480024016841F080510160006800F0F4
:10254000805011901348016841F4404101600068D7
:10255000069400F440401190022000900120039066
:10256000102004906846FFF753FA08B172B6FEE7F0
:102570000F20CDE90C040E940F9400210CA81094A8
:10258000FFF75AF9002801D072B6FEE712B010BD6D
:1025900040380240007000400248016841F4700178
:1025A0000160704788ED00E010B5806B0021C185A7
:1025B000C184FFF7F8FB10BD01680C3151E8002F12
:1025C00022F4907241E80023002BF5D10168143108
:1025D00051E8002F22F0010241E80023002BF5D141
:1025E000016B012909D101680C3151E8002F22F05B
:1025F000100241E80023002BF5D1202180F83E1085
:1026000000210163704708B590F83E10222901D0DF
:10261000022008BD82684FF480539A4201D10169BB
:1026200021B1816A9A421BD04AB10AE00268816AEC
:102630005268C2F308020A80816A891C08E00269B4
:1026400072B10268526802F07F020A70816A491C06
:102650008162C18D491E0904090CC18503D019E0AE
:1026600002685268F1E70168CA6822F02002CA6075
:102670000168CA6822F48072CA6001684A6922F05F
:1026800001024A61202180F83E10016B012903D02C
:10269000FFF7DEFD002008BD0021016301680C3159
:1026A00051E8002F22F0100241E80023002BF5D161
:1026B00001680A68D20602D50A6849680091818DCE
:1026C000FFF770FBE6E7000070B50446006801699B
:1026D000E26821F44051114301612169A068E26977
:1026E00008436169114308432168CA6849F20C63D1
:1026F0009A430243CA6020684169A26921F440718B
:102700001143416131492068884202D030498842F2
:1027100002D1FFF73BF901E0FFF728F9E269002356
:10272000192164253226B2F5004F626828D0A0FB3B
:102730000101930F9200FDF74BFD0146B0FBF5F050
:102740006FF01802504301EB800006EB0010B0FB65
:10275000F5F000F0F002B1FBF5F002EB0012B1FB76
:10276000F5F06FF01803584301EB800006EB001002
:10277000B0FBF5F000F00F0021681044886070BDD8
:10278000A0FB010192185B41FDF722FD0146B0FB61
:10279000F5F00201B1FBF5F06FF01803584301EBBF
:1027A000800006EBC000B0FBF5F000F0F80002EB93
:1027B0004002B1FBF5F0584301EB800006EBC0008E
:1027C000B0FBF5F000F00700D6E700000010014074
:1027D000001401402DE9F041984617460E46044684
:1027E000069D27E0681C25D02DB1FEF785FFA0EBE4
:1027F0000800A8421ED920680C3050E8001F21F4C0
:10280000D07140E80012002AF5D12068143050E859
:10281000001F21F0010140E80012002AF5D120201C
:1028200084F83D0084F83E00002084F83C0003203A
:10283000BDE8F0812068006836EA000004D000207E
:10284000B842CFD00020F3E70120F9E70148FFF7B5
:10285000ABBA0000800100200148FFF7A5BA0000D4
:10286000C40100200148FFF79FBA000008020020C1
:10287000FEE700000FB4054B10B503A9044A029807
:1028800000F0B2FF10BC5DF814FB0000D54000085A
:102890004000002003B401984100009850EAC12094
:1028A00018BF04204A0D18BF40F0010040F2FF722B
:1028B000B2EB515F08BF40F00200012808BF0520BD
:1028C00002B070470907090E002804DB00F1E02080
:1028D00080F80014704700F00F0000F1E02080F84D
:1028E000141D70470000000010B5B94A2DED020B11
:1028F0002DED0C8B82B00F9921F000409FEDB6CBEF
:1029000090422CDBA0F140530E9AA3F17F631A434F
:102910000FD0B349884202DC16D10E98A0B19DEDCC
:102920000E0B02B0BDEC0C8B02B0BDE8104000F005
:102930005FBE0029C1BF9FEDAC0B02B0BDEC0C8B9C
:1029400002B0C8BF10BD16E0012000F08DFE02B03D
:10295000BDEC0C8B02B0BDE8104000F055BEA44A9F
:102960009FEDA59B9FEDA6AB90425EDAA6499FED39
:10297000A8CB814208DBB0EE4C0AF0EE6C0A02B044
:10298000BDEC0C8B02B010BD9DED0E0B53EC102B6B
:1029900051EC100BFDF714FD41EC180B9E4806217D
:1029A000B0EE480AF0EE680A784400F00DFD53ECF2
:1029B000182B51EC100BFDF703FD41EC1B0B974856
:1029C000B0EE480AF0EE680A0421784400F0FCFCFE
:1029D00053EC182B51EC100BFDF7F2FC53EC192BB8
:1029E000FDF747FC41EC100B51EC1B0B53EC102B8B
:1029F000FDF758FD41EC100B53EC102B9DED0E0B29
:102A000051EC100BFDF7DCFC53EC1A2BFDF7D5FC59
:102A10009DED0E1B53EC112BFDF7CFFC53EC1C2B43
:102A2000FDF7CBFC41EC100BA9E79FED7D8B9FEDF3
:102A30007EBB9DED0E0B002953EC192B51EC100BB6
:102A400052DAFDF716FC53EC182BFDF7B9FC41ECFC
:102A5000180B77480621B0EE480AF0EE680A784471
:102A600000F0B2FC53EC182B51EC100BFDF7A8FC56
:102A700041EC1D0B6F48B0EE480AF0EE680A0421E5
:102A8000784400F0A1FC53EC182B51EC100BFDF72F
:102A900097FC53EC192BFDF7ECFB41EC190B51ECB7
:102AA000180B01F0C3FC41EC180B53EC192B51EC43
:102AB0001D0BFDF7F7FC53EC182BFDF781FC53ECD5
:102AC0001A2BFDF777FC41EC100B51EC180B53EC73
:102AD000102BFDF7CEFB53EC1B2BFDF771FC53ECD9
:102AE0001C2BFDF76AFC6DE0FDF767FC53EC182B1F
:102AF000FDF766FC41EC180B01F098FC41EC1A0B59
:102B000000208DED00AB00909DED000B51EC1A0BF9
:102B100053EC102BFDF7ADFB9DED000B41EC1C0BB6
:102B200053EC102B51EC100BFDF74AFC53EC182B17
:102B3000FDF743FC53EC1C2BFDF7B4FC41EC1C0BE4
:102B40003D48B0EE480AF0EE680A0621784400F0ED
:102B50003BFC53EC182B51EC100BFDF731FC41EC16
:102B60001D0B3648B0EE480AF0EE680A042178449E
:102B700000F02AFC53EC182B51EC100BFDF720FC55
:102B800053EC192BFDF775FB41EC100B51EC1D0BB1
:102B900053EC102BFDF786FC53EC1A2BFDF710FCC1
:102BA00053EC1C2BFDF765FB41EC100B53EC102B89
:102BB0009DED000B51EC100BFDF75BFB53EC1B2B59
:102BC000FDF7FEFB41EC100BD9E600000000000011
:102BD0000000F03F00000000182D4454FB21094084
:102BE0000000F07F00000000000000000000000076
:102BF0000000E03F00000000000000000000F03F87
:102C0000075C143326A6913C0000603C00000000E5
:102C1000182D4454FB21F93F0C1B00001A1B000027
:102C2000000000000000E03F000000000000004045
:102C3000561A0000641A0000681900007619000096
:102C400010B52F499FED2C1B2DED020B84B005987C
:102C500020F000408842D8BF9DED040B2DDD2949AE
:102C6000884209D1049840B94FF0010000F0FCFC03
:102C700000F0CAFC06B010BD05DB9DED040B00F0B2
:102C8000B7FC06B010BD68469DED040B00F0C8F817
:102C900010F0030004BF9DED021B9DED000B0CD056
:102CA00001280ED09DED021B9DED000B022817D0D0
:102CB000012000F005FC06B010BD00F0CDFA06B012
:102CC00010BD9DED021B9DED000B012000F0F8FBF7
:102CD00051EC100B81F0004106B041EC100B10BD1F
:102CE00000F0BAFA51EC100B81F0004106B041EC53
:102CF000100B10BD000000000000000000000000EC
:102D0000FB21E93F0000F07F2DED020B019820F040
:102D1000004001909DED000B02B0704700000000E4
:102D200010B52F499FED2C1B2DED020B84B005989B
:102D300020F000408842DCBF00209DED040B32DD16
:102D40002849884209D1049840B94FF0010000F0A9
:102D50008BFC00F059FC06B010BD05DB9DED040BAB
:102D600000F046FC06B010BD68469DED040B00F077
:102D700057F810F0030011D0012818D09DED021B68
:102D80009DED000B02281AD000F066FA51EC100BF2
:102D900081F0004106B041EC100B10BD9DED021B0F
:102DA0009DED000B012000F08BFB06B010BD9DEDEA
:102DB000021B9DED000B00F04FFA06B010BD012084
:102DC00000F07EFB51EC100B81F0004106B041ECAD
:102DD000100B10BD0000000000000000000000000B
:102DE000FB21E93F0000F07F00B583B09FED0A0BA7
:102DF0000A4601468DED000B6846FDF7BEFC9DEDD1
:102E0000000B51EC100BFDF760FD03B000EE100A53
:102E100000BD0000000000000000000000000000F5
:102E20002DE9F14F04462DED020B2DED088B8AB0F4
:102E30009FEDE70B80ED020B139EE74826F000455F
:102E400085420ADC9DED120B002084ED000B0AB0D8
:102E5000BDEC088B03B0BDE8F08FE0489FEDE0AB20
:102E60009FEDE1BBA84247DDE14F9FEDE39B9FED66
:102E7000E48B9DED120B53EC1A2B51EC100B002E32
:102E80001CDDFDF797FA41EC100BBD4208D053EC66
:102E90001B2B51EC100BFDF78DFAC4E900010BE080
:102EA00053EC192B51EC100BFDF784FA53EC182B53
:102EB000FDF780FAC4E900010120C8E7FDF7D9F960
:102EC00041EC100BBD4208D053EC1B2B51EC100B06
:102ED000FDF7CFF9C4E900010BE053EC192B51ECDD
:102EE000100BFDF7C6F953EC182BFDF7C2F9C4E936
:102EF00000014FF0FF30AAE7C348A84279DB9DEDFF
:102F0000120B51EC100B01F0D9F841EC180B9FEDAE
:102F1000C00B53EC102BFDF753FA9FEDBF1B53EC86
:102F2000112BFDF7A6F9FDF74AFB0746FDF729FB34
:102F300041EC190B53EC1A2BFDF742FA53EC182B0A
:102F4000FDF73BFA41EC180B53EC1B2B51EC190B22
:102F5000FDF736FADFF8C8A241EC100B4FEA15581E
:102F60000125FA4453EC102B51EC180BFDF722FA13
:102F7000032DC4E900013DD0C1F30A5005EB451112
:102F8000A8EB00001139814234DA0AEB051BB0EEE0
:102F900048AA9BED000BF0EE68AA53EC102B51EC05
:102FA000190BFDF70DFA41EC1B0B51EC1A0B53EC0E
:102FB0001B2BFDF7FFF941EC180B51EC1A0B53ECEE
:102FC000182BFDF7F7F953EC1B2BFDF7F3F99BEDED
:102FD000020B41EC1A0B53EC102B51EC190BFDF7C3
:102FE000EFF953EC1A2BFDF7E5F941EC100B6D1CD2
:102FF000B8E70EE0002EA8BF3846BFF628AF94ED24
:10300000000B51EC100B81F00041C4E90001784243
:103010001DE7C6F3130040F4801EC6F30A50A0F269
:10302000F530471100F01F05C5F12000DDF848B06C
:1030300008900020069007900520EC467949002D65
:1030400007EB0002794408BF51F8221009D051F86B
:10305000223001EB8201AB404A68089922FA01F163
:103060001943A1FB0E26A1FB0B131A449A4234BF4D
:103070000123002303EB06080CEB8003D3E901A630
:103080000E448E4234BF0121002192448A4411B182
:10309000924502D903E0924501D2012100E00021CE
:1030A000C3E901A641444CF82010011EA0F1010023
:1030B000C4DC029800F10050850F0298DDE9036737
:1030C0008000DDF81480FDF75CFA41EC1A0B304605
:1030D000FDF768FA9FED541B53EC112BFDF770F9C7
:1030E00041EC1B0B3846FDF75DFA9FED511B53EC8D
:1030F000112BFDF765F941EC180B4046FDF752FA2C
:103100009FED4D1B53EC112BFDF75AF941EC190BB8
:1031100051EC180B53EC192BFDF7ABF853EC1B2BB0
:10312000FDF7A7F853EC1A2BFDF7A3F8CDE908013A
:10313000002008909DED080B53EC1A2B51EC100B5E
:10314000FDF738F953EC1B2BFDF734F953EC182B32
:10315000FDF730F953EC192BFDF72FF99FED381BD4
:1031600053EC112BFDF72CF99FED370B41EC180BAD
:1031700053EC102B9DED080B51EC100BFDF720F9D3
:1031800053EC182BFDF775F89FED310B41EC180B44
:1031900053EC102B9DED080B51EC100BFDF710F9C3
:1031A00053EC182BFDF765F841EC100B139810F059
:1031B000004F06D06D4251EC100B81F0004141EC04
:1031C000100B284684ED000B41E6000000000000D3
:1031D0000000000000000000FB21E93F7CD9024014
:1031E00000004054FB21F93F3163621A61B4D03DC5
:1031F000FB21F93F000000000000601A61B4D03DDF
:103200007370032E8A19A33BFB2139410000000093
:1032100083C8C96D305FE43F000000000000E03F5C
:10322000D215000020150000000000000000103E34
:10323000000000000000103C000000000000103AF8
:10324000182D4454FB21F93D3326A611460B113CA1
:1032500000000054FB21F93D10B52DED040B2DEDC0
:10326000088B82B0B0EE419AF0EE619A0B9820F094
:1032700000449FED4BABB4F1795F11DA9DED0A0B81
:1032800051EC100BFDF79BF9002801BFB0EE4A0A84
:10329000F0EE6A0A02B0BDEC088B04BF04B010BDAA
:1032A0009DED0A0B53EC102B51EC100BFDF788F839
:1032B00041EC180B3C480621B0EE480AF0EE680AD3
:1032C000784400F081F853EC182B51EC100BFDF70B
:1032D00077F89DED0A0B41EC1B0B53EC192B51ECCD
:1032E000100BFDF76DF841EC190B53EC1B2B51EC57
:1032F000180BFDF765F853EC192BFDF75BF89FED04
:103300002C0B41EC190B53EC102B51EC180BFDF767
:1033100057F841EC100B2848844210DA53EC192B73
:1033200051EC100BFDF746F853EC1A2BFDF745F85E
:1033300041EC100B02B0BDEC088B04B010BD1F486F
:10334000A042BCBF9FED1E1B8DED001B06DBA4F54C
:1033500000100190002000909DED001B51EC100B1F
:1033600053EC112BFDF726F89DED000B41EC180BEB
:1033700053EC102B51EC1A0BFDF71CF841EC1A0B17
:1033800053EC192B51EC180BFDF714F853EC1A2BD6
:10339000FDF713F841EC100BCCE700000000000033
:1033A000000000000000F03F441200000000000098
:1033B000000000000000E03F3333D33F0000E93F4E
:1033C000000000000000D23F70B504462DED028BD6
:1033D0004D1E00EBC500B0EE408AF0EE608A90ED25
:1033E000000B35F0060017D053EC182B51EC100BE6
:1033F000FCF7E6FF41EC100B6D1E04EBC50090EDF1
:10340000001B51EC100B53EC112BFCF732FF41EC7D
:10341000100B35F00600E7D1022D36D0042D1CD05C
:10342000062D1CBFBDEC028B70BD53EC182B51EC6C
:10343000100BFCF7C5FF94ED0A1B53EC112BFCF7A6
:1034400018FF53EC182BFCF7BBFF94ED081B53EC53
:10345000112BFCF70EFF41EC100B53EC182B51EC29
:10346000100BFCF7ADFF94ED061B53EC112BFCF792
:1034700000FF53EC182BFCF7A3FF94ED040B53EC67
:10348000102BFCF7F6FE41EC100B53EC182B51EC13
:10349000100BFCF795FF94ED021B53EC112BFCF77E
:1034A000E8FE53EC182BFCF78BFF94ED001B53EC5C
:1034B000112BFCF7DEFEBDEC028B41EC100B70BD56
:1034C00031B504462DED040B2DED0A8BB0EE41BA5B
:1034D000F0EE61BA0B989DED0A0B20F00040B0F1C0
:1034E000795F0DDA51EC100BFFF7D4F9042808BF0F
:1034F00000F09AF89DED0A0BBDEC0A8B05B030BDCB
:1035000053EC102B51EC100BFCF75AFF41EC180B4D
:103510009DED0A0B53EC182B51EC100BFCF750FFF0
:1035200041EC190B2C48B0EE480AF0EE680A052170
:103530007844FFF749FF9FED2ACBB0EE40AAF0EEAA
:1035400060AA9CB353EC1C2B51EC190BFCF738FF11
:1035500041EC1C0B53EC1A2B51EC190BFCF730FF10
:103560009FED210B41EC190B53EC102B51EC1B0B75
:10357000FCF726FF53EC192BFCF71CFF53EC182B20
:10358000FCF71EFF53EC1B2BFCF714FF53EC1C2B1A
:10359000FCF710FF9DED0A1B53EC112BFCF70DFF00
:1035A000BDEC0A8B05B041EC100B30BDFFE753ECCE
:1035B0001A2B51EC180BFCF703FF53EC1C2BFCF7F8
:1035C00058FE53EC192BFCF7FBFE9DED0A1B53EC48
:1035D000112BFCF74EFEE3E7CC10000000000000CA
:1035E000495555555555C5BF000000000000E03F46
:1035F00010B553EC102B51EC100BFCF73AFE41ECDC
:10360000100B10BD000000009FED050B10B553EC32
:10361000102B51EC100BFCF745FF41EC100B10BDCB
:1036200000000000000000009FED050B10B553ECFA
:10363000102B51EC100BFCF7C3FE41EC100B10BD2E
:10364000000000000000001002E008C8121F08C1BE
:10365000002AFAD170477047002001E001C1121F13
:10366000002AFBD170470000014908607047000044
:10367000440000202DE9FF5FDDE90220010DDDF8A7
:1036800038B0024318D044F61050A1F2FF31414344
:103690000D140F98012820D0A5EB0B00401C5FEA09
:1036A000000A4FF00004474EDFF81C91A046504638
:1036B00016D5CAF1000728E00F98012443A201287B
:1036C00008D0002100980F9BC0E90021C0E9024307
:1036D000BDE8FF9F6FEA0B01F4E7CBF10000DEE7E6
:1036E000074612E0F80707D02246334640464946CF
:1036F000FCF766FE80468946224633461046194648
:10370000FCF75EFE04460E467F10002FEAD1DDE98D
:103710000201BAF1000F42464B4602DAFCF750FEB6
:1037200001E0FCF7BFFE04460E460022284BFCF7E2
:10373000A9FF03D84FF0FF30014607E00022254BD8
:1037400020463146FCF795FDFDF7A7F8102409E067
:10375000002C0ADB0A220023FCF73AFD019B3032E1
:103760001A55641E50EA0102F2D1641C019AC4F198
:10377000110314440F9A012A03D0012208430DD1EA
:103780000AE0084304D000204FF0110B0F9080E7AF
:10379000A3EB0B056D1E0DE05B4504DD4FF0000251
:1037A00005F1010504E003DA4FF00002A5F101057F
:1037B000002AECD000980F99C0E90231C0E9004519
:1037C00086E70000000024400000F03F30000000C9
:1037D0000000F0430000E03F30380A2801D2012009
:1037E00070470020704700002DE9FF4F95B09B46C1
:1037F0008946064600250FE2252877D10024274672
:10380000F84A0121059400E0044316F8013F203BEB
:1038100001FA03F01042F7D130782A2811D06FF066
:103820002F033078A0F13002092A16D8059A44F007
:10383000020402EB820203EB42021044761C059064
:10384000EFE759F8042B0592002A03DA504244F4BA
:103850000054059044F00204761C30782E2816D1CE
:1038600016F8010F44F004042A280DD06FF02F023F
:103870003078A0F13003092B09D807EB870302EB5E
:103880004303C718761CF3E759F8047B761C30789D
:103890006C280FD006DC4C2817D068280DD06A2879
:1038A00014D104E0742810D07A280FD10DE044F42C
:1038B00000140AE044F4801401E044F440147278E7
:1038C000824202D104F58014761C761C307866287A
:1038D0000BD013DC582877D009DC002875D0452898
:1038E000F6D04628F4D047281AD19DE118E0632885
:1038F00035D0642879D0652812D195E1702873D02D
:1039000008DC6728F1D069286FD06E280DD06F28A9
:1039100006D1B5E073282CD0752875D0782874D0DE
:103920005A46179990476D1C75E1C4F3025002285E
:1039300009D003280DD0D9F8001004280DD00D604F
:1039400009F1040967E1D9F80010EA17C1E900524A
:10395000F6E7D9F800100D80F2E70D70F0E719F8DE
:10396000041B8DF8001000208DF80100EA460120AC
:1039700003E059F804AB4FF0FF3061074FF000014E
:1039800002D40DE008F101018846B9420FDA804502
:10399000F8DB1AF808100029F4D108E008F1010159
:1039A00088468142FADB1AF808100029F6D10598FA
:1039B0005B46A0EB080721463846179A00F094FAB8
:1039C000284400EB080507E04DE029E10DE01AF876
:1039D000010B5A4617999047B8F10108F7D25B4698
:1039E00021463846179A13E142E00A220092C4F3B6
:1039F00002524FF0000A022A08D059F804CB032AD9
:103A00004FEAEC710AD00DE029E02AE009F1070144
:103A100021F00702F2E802C1914609E00FFA8CFC9E
:103A20004FEAEC71042A03D14FFA8CFC4FEAEC7197
:103A3000002907DA0A460021DCF1000C61EB0201E3
:103A40002D2202E0220504D52B228DF8042001222C
:103A500003E0E20701D02022F7E7904659E00A216F
:103A600002E010220DE010214FF0000A00910BE05F
:103A700010224FF0000A44F004040827009203E0EB
:103A800008224FF0000A0092C4F30252022A05D025
:103A900059F804CB0021032A08D009E009F10701F5
:103AA00021F00702F2E802C1914605E01FFA8CFC02
:103AB000042A01D10CF0FF0C4FF00008220728D592
:103AC000702806D0009B83F0100353EA0A0305D048
:103AD0000EE040228DF80420012208E05CEA010299
:103AE00006D030228DF804208DF805000222904681
:103AF000009B83F0080353EA0A030AD15CEA01023F
:103B000001D1620705D530228DF804204FF001085D
:103B10007F1E582804D034A003900EA802900DE018
:103B200036A0F9E753466046009AFCF751FB8446FD
:103B30000398825C0298401E029002705CEA0100C9
:103B4000F0D1029806A9081A00F1200A600702D5F0
:103B500024F4803400E00127574502DDA7EB0A007A
:103B600000E0002000EB0A01009005984144401A53
:103B70000590E00306D45B462146179A059800F0AD
:103B8000B3F90544002706E001A85A46C05D17991D
:103B900090476D1C7F1C4745F6DBE0030CD55B4668
:103BA0002146179A059800F09FF9054404E030205B
:103BB0005A46179990476D1C0099481E009000299D
:103BC000F5DC08E0029802995A460078491C0291F7
:103BD000179990476D1CBAF10001AAF1010AF1DCB6
:103BE00065E10000092801003031323334353637C1
:103BF0003839616263646566000000003031323339
:103C000034353637383941424344454600000000D8
:103C100000F058F90544761C307800287FF4ECADAC
:103C200019B02846BDE8F08F620700D4062709F1D5
:103C3000070222F0070CFCE80223E14603F00048EB
:103C40005FEA080C02D00FF2702C0DE05FEA045C12
:103C500002D50FF2682C07E05FEAC47C02D00FF2B5
:103C6000602C01E0AFF2700C4FF0FF3823F00043FE
:103C7000CDF850C065280CD006DC452809D0462870
:103C80001DD047283DD13DE0662818D067287ED159
:103C900038E00021112F01DB112000E0781CCDE974
:103CA000000106A90EA8FFF7E5FCDDE90F010E9A59
:103CB00003910021009207F1010A04914DE04FF0B9
:103CC00000400097CDE9011006A90EA8FFF7D2FC2D
:103CD000DDE90F0203920E9B11990022DDF80CA082
:103CE0000093049211B9791C00EB010AB7EB0A00AA
:103CF00004D4C0F1FF3007F1010A0490AAEB0700D9
:103D0000019044E0012F00DA01270021112F01DD8D
:103D1000112000E03846CDE9000106A90EA8FFF702
:103D2000A9FCDDE90F010E9A039100210491009294
:103D3000BA4621070CD40399514500DA8A46BAF1F4
:103D4000010F05DD009AAAF10101515C302908D06C
:103D5000B84202DA10F1040F06DA0121CDE90110B0
:103D600015E0AAF10101E9E7002805DC0499014406
:103D70000491AAEB000102E0411C514500DD8A4696
:103D80000499401A401C01904FF000400290200717
:103D900004D40198504501DBCDF8048000208DF853
:103DA0004F0002980DF14F07B0F1004F25D02B20A6
:103DB0000E9002984FF0020800280CDA4042029060
:103DC0002D200E9007E00A210298FCF773FC303199
:103DD000029007F8011DB8F10001A8F10108F2DC1A
:103DE00002980028EFD1791E0E980870307800F004
:103DF000200040F0450007F8020D12A8C01B00F19A
:103E000007081498007800B1012000EB0A0101981E
:103E100001EBE07105984144401A401E0590E00313
:103E200006D45B462146179A059800F05DF80544D4
:103E30001498007818B15A46179990476D1CE00302
:103E400024D55B462146179A059800F04DF80544A5
:103E50001CE00498002807DBDDE90301884203DD4C
:103E60000098405C179901E0179930205A46904716
:103E7000049805F10105401C04900198401E019032
:103E800004D12E205A46179990476D1CBAF10001B3
:103E9000AAF1010ADDDC05E017F8010B5A46179973
:103EA00090476D1CB8F10001A8F10108F4DC5B46F5
:103EB0002146179A0598ABE62D0000002B00000064
:103EC000200000002DE9F041044600251E4617465B
:103ED000880404D405E039462020B0476D1C641ED8
:103EE000F9D52846BDE8F0812DE9F04104460025CA
:103EF0001E469046C80301D5302700E020278804DD
:103F000004D505E041463846B0476D1C641EF9D51E
:103F10002846BDE8F081000070B54D4C00264FF4F6
:103F20009675A6604A490A230122C91C4948FEF732
:103F30002FF9E0784C2851D145490A230122C91CA8
:103F40004448FEF725F9E0786F2847D140490A2315
:103F50000122C91C3F48FEF71BF9E07863283DD1D8
:103F60003B490A230122C91C3A48FEF711F9E078BF
:103F70006B2833D136490A230122C91C3548FEF784
:103F800007F9E078652829D131490A230122C91CA3
:103F90003048FEF7FDF8E07864281FD12C490A2349
:103FA0000122C91C2B48FEF7F3F8E078222815D12E
:103FB00027490A230122C91C2648FEF7E9F8E078C0
:103FC0003A280BD122490A230122C91C2148FEF7B5
:103FD000DFF8E078312807D0302815D0A068401CE1
:103FE000A060C8289EDB70BD0120A0611A48FEF7C2
:103FF00041FCE0690028F6D118A0FEF73BFC6420E4
:10400000FDF778FA1BA00DE02048A661FEF732FC10
:10401000E0690128E7D111A0FEF72CFC6420FDF730
:1040200069FA1BA0FEF726FC2846FDF763FAA17883
:104030001EA0FEF71FFC2846FDF75CFA1CA0FEF749
:1040400019FCC820FDF756FAA069E06170BD0000B8
:104050000000002080010020F448000841542B4358
:104060004D47533D223135383539363234353636C1
:10407000220D0A004C6F636B656420737563636582
:10408000737366756C6C792E0D0A00006C4800081D
:10409000556E6C6F636B65642073756363657373D2
:1040A00066756C6C792E0D0A000000002563000017
:1040B00041542B434D47443D310D0A0082B0CDE9B8
:1040C000000121F0004001909DED000B02B051EC89
:1040D000100B704708B502238DF8000001226946D5
:1040E0000248FEF7B7F89DF8000008BD80010020E7
:1040F00010B528A0FEF7BEFB6420FDF7FBF927A052
:10410000FEF7B8FB6420FDF7F5F926A0FEF7B2FB39
:104110006420FDF7EFF926A0FEF7ACFB6420FDF765
:10412000E9F926A0FEF7A6FB6420FDF7E3F926A037
:10413000FEF7A0FB6420FDF7DDF929A0FEF79AFB4E
:104140006420FDF7D7F929A0FEF794FB6420FDF762
:10415000D1F92AA0FEF78EFB6420FDF7CBF923A04E
:10416000FEF788FB6420FDF7C5F92848FEF782FBBF
:104170006420FDF7BFF926A0FEF77CFB6420FDF765
:10418000B9F92BA0FEF776FBBDE810406420FDF7DF
:10419000B1B9000041540D0A000000004154490D1E
:1041A0000A00000041542B4350494E3F0D0A0000C5
:1041B00041542B4353510D0A0000000041542B433E
:1041C000475245473F0D0A0041542B47545345542D
:1041D0003D22495052464D54222C350D0A00000014
:1041E00041542B43474D523F0D0A000041542B4D83
:1041F000495043414C4C3F0D0A00000041542B4DA7
:10420000495043414C4C3D310D0A000068460008BE
:1042100041542B54434D515454434F4E4E3D312C39
:1042200031303030302C3234302C312C310D0A000A
:1042300041542B54434D5154545355423D22247400
:1042400068696E672F646F776E2F70726F7065721A
:1042500074792F57544F4C3133345443552F76656E
:104260006869636C65222C310D0A000088B0FDF787
:1042700051FAFEF753F9FEF749F8FEF765F8FEF735
:104280007FF8FEF799F8DFF85CA1DFF85C81002584
:10429000AAF1A809D8F81000444630B9FFF728FF62
:1042A000FEF7A8F82069401C2061C82805DDFFF74B
:1042B0001FFFFEF79FF8256101E0401C2061FFF71A
:1042C0002BFE02AE6F46A560474901231A46C91C62
:1042D0004648FDF75DFFE07861788842F4D144A05C
:1042E0000A23D0E90010CDE90010062202A93F48B8
:1042F000FDF74EFF2846A560315C3954401C062866
:10430000FADB3949A06020316846FBF7A4FF00289A
:10431000DAD1FCF7CBFFFFF7FFFDFCF773FDFFF7EA
:10432000FBFDA2699AED040B012A504647D08DEDA2
:10433000040B90ED080B30488DED020B9AED100B3D
:104340008DED000B99ED0C0B616953EC102BFEF712
:1043500091FA99ED0C0B94ED0A1B1A274E4653EC7B
:10436000112B51EC100BFCF78DF993D860680A28DB
:1043700090DAA06901288DD120A0FEF77BFA642095
:10438000FDF7B8F896ED0C0B224853EC102BFEF716
:1043900071FA4FF496763046FDF7ACF839461EA018
:1043A000FEF768FA3046FDF7A5F81CA0FEF762FAA2
:1043B000C820FDF79FF86068401C60606AE78DEDDB
:1043C000060B90ED080B18488DED040B9AED100BC1
:1043D0008DED020B99ED0C0B8DED000B6169FEF775
:1043E00049FAB6E7F0000020000000200802002093
:1043F00030303030303000009447000841542B43B7
:104400004D47533D2231353835393632343536361D
:10441000220D0A007C4900082563000041542B430B
:104420004D47443D310D0A00B046000800B52DED62
:10443000048B83B041EC190BFCF76FFC41EC180BBB
:1044400018EE100A18EE901A8DED008B002818BF98
:104450000120084320F00040C0F17F6000F1E040FF
:10446000C00F14D019EE101A19EE900A8DED009BB2
:10447000002918BF0121084320F00040C0F17F60EF
:1044800000F1E040C00F04BF0120FFF7EDF851EC50
:10449000180B03B0BDEC048B00BD00000000000051
:1044A00000000102030406070809000000000102E1
:1044B0000304000000000000555555555555C53FF3
:1044C0007D6FEB0312D6D4BF5544880E55C1C93F4A
:1044D0003B8F68B52882A4BF88B20175E0EF493FE1
:1044E00009F7FD0DE13D023F4B2D8A1C273A03C021
:1044F000C88A599CE52A004059018D1B6C06E6BF0D
:1045000082922EB1C5B8B33F4C5555555555A53F70
:104510007751C1166CC156BF9015CB19A001FA3E58
:10452000AD529C804F7E92BEC4B1B4BD9EEE213E82
:10453000D43888BEE9FAA8BD00004054FB21F93FF9
:104540003163621A61B4D03D0000601A61B4D03D9D
:104550007370032E8A19A33B0000002E8A19A33B17
:10456000C14920259A837B3900000000000000002B
:104570006E83F9A22915444ED15727FCC0DD34F5CE
:10458000999562DB4190433CAB6351FE61C5BBDE54
:104590003A6E24B7E0D24D42EA2E49061C92D10968
:1045A0001CEB1DFE3EA729B1F53582E88444BB2EE5
:1045B00026709CE9417E5FB439D69139F439538332
:1045C0008B5F849C3B28F9BDFF97F81F0F9805DE91
:1045D0008B112FEF1F6D0A5ACF7E366DB709CB278F
:1045E000663F464F2DEA5F9EC7BA27757BF1E5EB24
:1045F000F739073DEA92528AB15FFB6B085D8D1F68
:10460000A6F810111111813FD561C119A0012ABF6F
:104610007DFEB157E31DC73EEB9C2B8AE6E55ABEF3
:104620007CD5CF5A3AD9E53DDDDDDDDDDCBBBBDD38
:10463000DDDDDDDDDDDDDDDD988888888888888842
:104640007777777777888888855555566666666662
:104650006666666666688888833333322222222241
:10466000222222222228888D41542B54434445562D
:10467000494E464F5345543D312C2257544F4C31EF
:104680003334544355222C2276656869636C652265
:104690002C223467453771363647763635686B33AA
:1046A0004E7A6D72764856513D3D220D0A0000004B
:1046B00041542B54434D5154545055423D2224747F
:1046C00068696E672F75702F70726F70657274797C
:1046D0002F57544F4C3133345443552F7665686906
:1046E000636C65222C312C227B5C226D6574686FB3
:1046F000645C223A5C227265706F72745C222C5C7E
:1047000022636C69656E74546F6B656E5C223A5CF3
:10471000223132335C222C5C22706172616D735CD9
:10472000223A7B5C2252657365745C223A25642CC4
:104730005C224C6F636B65645C223A25642C5C22BE
:1047400053706565645C223A252E336C662C5C22BE
:10475000456C65766174696F6E5C223A5C22256CEB
:10476000665C222C5C224C6F6E6769747564655CB4
:10477000223A5C22256C665C222C5C224C617469B6
:10478000747564655C223A5C22256C665C227D7DD2
:10479000220D0A0041542B54434D5154545055425C
:1047A0003D22247468696E672F75702F70726F7068
:1047B000657274792F57544F4C3133345443552F0D
:1047C00076656869636C65222C312C227B5C226DD6
:1047D0006574686F645C223A5C227265706F7274F3
:1047E0005C222C5C22636C69656E74546F6B656E21
:1047F0005C223A5C223132335C222C5C2270617282
:10480000616D735C223A7B5C2252657365745C2235
:104810003A25642C5C2253706565645C223A252E2F
:10482000336C662C5C22456C65766174696F6E5CD6
:10483000223A5C22256C665C222C5C224C6F6E67EF
:1048400069747564655C223A5C22256C665C222C76
:104850005C224C617469747564655C223A5C222543
:104860006C665C227D7D220D0A00000041542B54B1
:10487000434D5154545055423D22247468696E672B
:104880002F75702F70726F70657274792F57544F37
:104890004C3133345443552F76656869636C652217
:1048A0002C312C227B5C226D6574686F645C223A2B
:1048B0005C227265706F72745C222C5C22636C697E
:1048C000656E74546F6B656E5C223A5C22313233D4
:1048D0005C222C5C22706172616D735C223A7B5C9D
:1048E000224C6F636B65645C223A307D7D220D0A39
:1048F0000000000041542B54434D51545450554234
:104900003D22247468696E672F75702F70726F7006
:10491000657274792F57544F4C3133345443552FAB
:1049200076656869636C65222C312C227B5C226D74
:104930006574686F645C223A5C227265706F727491
:104940005C222C5C22636C69656E74546F6B656EBF
:104950005C223A5C223132335C222C5C2270617220
:10496000616D735C223A7B5C224C6F636B65645CA7
:10497000223A317D7D220D0A00000000596F7572C8
:104980002076656869636C65206973206D6F766950
:104990006E672C2073706565643A20256C662C2048
:1049A00069746D61792068617665206265656E2045
:1049B00053544F4C454E212120506C656173652046
:1049C000636865636B20796F757220576543686112
:1049D00074206F6666696369616C206163636F75DB
:1049E0006E742054454E43454E545F6C69616E6C45
:1049F00069616E2E0D0A0000184A000800000020B0
:104A00004800000048360008604A000848000020BE
:104A100008060000583600082C241A000000000088
:104A20000000000000000000000000000000000086
:104A30000000000000000000474E4747412C0000E6
:104A4000333333333333F73F0100000010000000ED
:104A5000000000000024F40000000000000000003E
:040000050800019955
:00000001FF
